:020000020000FC
:040000000C94B000AC
:040038000C943400F0
:04002C000C943E00F2
:040048000C944900CB
:100068000F934FB685FD03C08A9409F480624FBE92
:100078000F9118950F934FB6009181000A7F009356
:10008800810070624FBE0F9118954FB61F930F9362
:10009800BF93AF93B1E0A6EA0091C6011127A00F64
:1000A800B11F1091C6001C9303950F3109F4002766
:1000B8000093C601AF91BF910F911F914FBE189544
:1000C800F894A89504B7007004BF00916000086117
:1000D8000093600000E0009360007894089572D265
:1000E80084D277278827409A02E50CBD05E005BD34
:1000F80002E004BD00E407BD00916E0002600093B9
:100108006E0008E00093810000E011E00093890090
:100118001093880000916F00026000936F000091B7
:1001280069000260009369000DB301600DBB78940B
:10013800089500E30093B8000895F89400E0009350
:10014800C50003E30093C40006E00093C20008E979
:100158000093C1007894089508E00EBF0FEF0DBF1B
:10016800AFDFBDDFE6DF0E94F701E7DF25D2E5D488
:1001780033D0309B38C067D4030230D4EED3103468
:10018800D1F7EBD300E3101B1093A101E6D350D2B3
:100198008F7B163411F4806404C000E3101B1093A5
:1001A800A201DBD31D3009F0E6CF0091A101037055
:1001B800013011F434D103C0023049F434D186FD42
:1001C80007C00091A20107700093A0018BD0D3CF84
:1001D800FBE0ECEF30D1CFCF0E94E404FBE0E4E693
:1001E8000E94DA04089587D03BD36FD03DD3ADD2B7
:1001F80071FF07C0222009F016C03CD025D036D0A8
:10020800F5CF72FF10C0A9D31B3581F7A6D31234DE
:1002180021F430D019D02AD0E9CF113439F72AD0B7
:100228001CD024D0E3CF133129F487D000270093C2
:10023800A001DCCFB1E0A0E91FD03AD00D9109931D
:100248002A95E1F713D0D0CF0091A001039508308B
:1002580009F400270093A00108950091A0010A95D0
:100268000F3F09F407E00093A0010895CBD30FD006
:10027800C4D30895C2D3FBCFD1E0C0E00091A00160
:10028800002309F4089560960A95E9F70895F4DFC4
:1002980048D01091A00120D377D301D008954F936F
:1002A80040E119910E94B8044A95D9F74F910895F1
:1002B8004F93DF93CF93E0DF40E100E209934A9543
:1002C800E9F7CF91DF914F910895F2E0EAED6ED30F
:1002D80008957C2E2E2E2E2E2E2E2E2E2E2E2E2EA7
:1002E8002E7C1A004F9340E1C7DF099166D04A95EA
:1002F800E1F74F9108951F934F9300270093A001B2
:1003080048E0BADFC4DF0091A00103950093A00183
:100318004A95C1F700270093A001A8DF4F911F91CC
:100328000895DF93CF93C7E0D3E00091A0010F7049
:10033800D00FA0D3CF91DF9108959AD2FCE0E0E2EC
:1003480035D3F0D21D3011F493D2089571D11935F7
:10035800C1F78ED2FCE0ECE429D3E1D32BD188D2CB
:1003680008950FEF01BD02BDC3D308950FEF01BD7E
:1003780002BDCBD3089593D020F02EE403D008F02B
:1003880008950895022F0093BB0004E80093BC0071
:100398000091BC0007FFFCCF0091B900087F08312D
:1003A80011F488940895089408950F93007F0FD04E
:1003B8000F910295007F0BD008950F93007F016085
:1003C80006D00F910295007F016001D0089580FB4F
:1003D80003F90F938BD00F910F93046087D00F917F
:1003E8000B7F84D00895816008958E7F089502E080
:1003F800DCDFB3D0089501E0D8DFAFD0089508E07E
:10040800D4DF9CD008950CE0D0DF98D0089508E19F
:10041800CCDF94D008950CE1C8DF90D0089500E8AF
:10042800C4DF8CD0089500ECC0DF88D008950EECAE
:10043800BCDF84D008950F9305910A3111F40F9110
:1004480008950030C9F3B9DFF7CF0F93029501D0B3
:100458000F910F7010E3010F0A3310F017E0010F2E
:10046800ACDF08950AE3A9DF08951A95D4DF1A9539
:10047800E9F7089500E2A1DF089513E000E29DDFA7
:100488001A95E1F708950CE090DF0895CCDFFBE0C2
:10049800ECEFD1DFC4DFFBE0ECEFCDDF089504EA39
:1004A8000093BC000091BC0007FFFCCF0091B9008D
:1004B800087F083011F0003111F4889408950894E9
:1004C800089504EA0093BC000091BC0007FFFCCF2C
:1004D8000091B900087F003111F4889408950894B8
:1004E8000895089504E90093BC0008950093BB00A3
:1004F80004E80093BC000091BC0007FFFCCF00910A
:10050800B900087F083211F4889408950894089572
:1005180008E1802E8F7D089532E33A95F1F708952A
:100528003BE43A95F1F708952DE0F6DF2A95E9F7CF
:10053800089524E6F1DF2A95E9F7089500E011E02F
:1005480000938900109388007F7D009181000560E9
:100558000093810075FFFECF089500E01CE1009331
:100568008900109388007F7D0091810005600093C9
:10057800810075FFFECF089500E01EE40093890016
:10058800109388007F7D00918100056000938100B1
:1005980075FFFECF089506E01AE1009389001093D5
:1005A80088007F7D0091810005600093810075FFC0
:1005B800FECF089525E001C02AE00E94CF022A95C7
:1005C800E1F7089520E9B1E0A0E000E20D932A9553
:1005D800E9F72FE1B1E0A6EA00270D932A95E9F79C
:1005E8002093C5012093C601089510E10027B0E0CB
:1005F800A0E00D931A95E9F70895172D13D0162D3D
:100608000E940E03152D0E940E030895162D0E94B8
:100618001603F8CF312E12950E941603132D0E944F
:10062800160308951F7000E3100F0E94B804089580
:10063800113620F01B3710F48894104208957E7FFD
:10064800622D663068F40E94350350F4B1E0A3EAE5
:10065800DD93CD93CC93DD2311F00FEF0C937160F4
:100668000895DD27CC27B1E0A0E91D910E9452032F
:1006780068F4312E0E94020468F0332D22270E946C
:10068800140440F06A9589F7089408958894DD2742
:10069800CC2708950894DFEFCFEF0895312E10533B
:1006A80018F01A3008F408958894132D08953FEF30
:1006B800732E7394C051D742E0F7C05FD84D20EF36
:1006C800205FC85ED340E0F7C851DC4F632E6394C7
:1006D800C456D040E0F7CC59622A20EF205FCA50B8
:1006E800E8F7C65F522E5C2A0895312EA1DF105319
:1006F80040F01A3028F017501A3018F0103108F46A
:100708000895132D889408951F7060E3160F1993A8
:1007180008950F9306E6100F08F40F700DF4007F8C
:10072800101B0F9108952F933F93212F312F2F7076
:100738002A3008F402C026E0121B3A3908F402C035
:1007480020E6121B3F912F91089545D006D11D3008
:1007580021F4B1E0A0E972600895183141F4222D26
:10076800222399F30E94D3042A95E1F7EECF18309B
:1007780051F4222D222351F32A95222E0E94D304CC
:1007880000E00E93E3CF1F3709F4F3CF193031F4AB
:1007980037E010E210D03A95E9F7D8CF1B3111F4C1
:1007A80074600895133109F4089521D073FF01C0CE
:1007B800CDCF01D0CBCF222D203109F40895239538
:1007C800222E1D93D1D008951D91103011F48894D4
:1007D8000895089408950027222420E1B1E0A0E9B3
:1007E8000D932A95E9F7B1E0A0E9797F089578603B
:1007F800103218F01F3708F4777F08950E9410040C
:1008080050F0DF932F91CF933F9106D020F004D082
:1008180010F00E94140408958894CC1FDD1F0895D9
:10082800C30FD21F08950F930FEFA00FB01F0F91A2
:1008380008953F936F93331B69E0111F6A9521F464
:10084800232F6F913F910895331F321B18F4320FF5
:100858008894F3CF0894F1CF0E942705030A0BC0B0
:100868000E9427050E0A07C00E9427050F0A03C029
:100878000E94270512020E94F20408950E9427058B
:1008880002010E944C040F000E94270502010895EE
:10089800FF91EF91EE0FFF1FEE7F25913196F695B0
:1008A800E795EF93FF930E94F2040E94ED042A95C6
:1008B800D1F708950E9434040E94F204FBE0E0ECB2
:1008C8000E94DA0408950E943C04FBE0E6EE0E94D0
:1008D800DA040E94B10408951F93129501D01F9164
:1008E8001F7060E3160F1A3310F067E0160F0E94AE
:1008F800B804089524E60E941D04112311F00E94F3
:1009080092041AE01F932F931F912F910E941D04A8
:100918000E9492041F932F931F912F9110630E949E
:10092800B80408950091C5011091C601101799F0F7
:10093800BF93AF93B1E0A6EA0091C5011127A00FBC
:10094800B11F1C91AF91BF9103950F3109F4002796
:100958000093C5010895112708950091C5011091CC
:10096800C6011017D1F3E4CF0091C00005FFFCCFFA
:100978001093C600089500D01F931DE00E94B8048C
:100988001AE00E94B80404C00E94CA041F9310E22F
:100998000E94B8041F9108951F931CE2F9CF1F937A
:1009A8000E94F7040E94F2041F9108951F93159165
:1009B8001A3111F41F9108951030C9F3D5DFF7CF1C
:1009C800FF93EF93FAE0EEE90E94DA04FAE0E8EA2E
:1009D8001DC0FF93EF93FAE0E6E918C0FF93EF9389
:1009E800FAE0ECEA13C0FF93EF93FAE0EAE90EC0ED
:1009F800FF93EF93FAE0E0EB09C0FF93EF93FAE07F
:100A0800E6EB04C0FF93EF93FAE0EAEBCFDFEF9158
:100A1800FF910895FF93EF93FAE0E0ECF7CFFF938F
:100A2800EF93FAE0E4ECF2CFFF93EF93FAE0E6EC11
:100A3800EDCFFF93EF93FAE0EEECE8CFFF93EF935F
:100A4800FAE0E2EDE3CF0E940E05FF91EF91889462
:100A5800EE1FFF1F15910E947E040E941305159139
:100A68000E947E040E9418058894F795E795EF93F5
:100A7800FF9308950E940E051D2F0E947E040E9478
:100A880013051C2F0E947E040E94180508951B5B05
:100A9800421A1B5B441A1B5B481A1B5B304A1A003C
:100AA8001B5B4A1A1B5B4B1A1B5B316D1A001B5BE5
:100AB8006D1A1B5B376D1A001B5B1A003B1A481A2C
:100AC8001B5B314D1A001B371A001B381A00F999A5
:100AD800FECFD2BDC1BD00BDF894FA9AF99A7894B8
:100AE8000895F999FECFD2BDC1BDF89A00B5089511
:100AF800F999FECFC1B5D2B52196C1BDD2BD00BD11
:100B0800F894FA9AF99A78940895F999FECFC1B5AC
:100B1800D2B52196C1BDD2BDF89A00B508950FEFA0
:100B280001BD02BD00E0B02F00E9A02FF1E0E0E038
:100B38000191DEDF1197E1F708950FEF01BD02BDC6
:100B480000E0B02F00E9A02FF1E0E0E0DEDF0F3F8A
:100B580009F400E201931197C9F7089520203D3D5B
:100B68003D3D3D3D3C3C3C206D3332382D4C4344AB
:100B780020416E6E756E636961746F72203E3E3EF1
:100B88003D3D3D3D3D3D0D0A1A002D2D2D2D2D2DB0
:100B98002D2D2D2D2D2D2D2D2D2D2D2D2D2D2D2D7D
:100BA8002D2D2D2D2D2D2D2D2D2D2D2D2D2D2D2D6D
:100BB8002D2D2D2D2D2D1A00456E7465723A201A93
:100BC80020202A2A2A20556E7265636F676E697A1B
:100BD800656420496E70757421202A2A2A1A2020FB
:100BE800537472696B6520616E79206B6579202D6D
:100BF8002D3E201A202020202020202020202020C8
:100C080020202020202020202020202020202020DC
:100C18002020202020201A005E532073746F7265F4
:100C280020696E20454550524F4D2C205920746F35
:100C380020736176652C203C43523E20746F2065FA
:100C48007869741A2A2A2A20536176696E67207493
:0E0C58006F20454550524F4D202E2E2E201A53
:00000001FF
